:020000040800F2
:1000000000500020310B0008350A00083D0A0008A6
:10001000450A00084D0A0008550A000800000000C3
:100020000000000000000000000000005D0A000861
:10003000690A000800000000750A0008810A00082B
:10004000790B0008790B0008790B0008790B000880
:10005000790B0008790B0008790B0008790B000870
:10006000790B0008790B0008790B0008790B000860
:10007000790B0008790B0008790B0008790B000850
:10008000790B0008790B00088D0A0008790B00082D
:10009000790B0008790B0008790B0008790B000830
:1000A000790B0008790B0008790B0008790B000820
:1000B000A10A0008B50A0008790B0008790B0008AE
:1000C000790B0008790B0008790B0008790B000800
:1000D000790B0008790B0008790B0008790B0008F0
:1000E000790B0008790B0008790B0008000000006C
:1000F0000000000000000000000000000000000000
:0C01000000000000000000005FF808F1A3
:10010C0010B5054C237833B9044B13B10448AFF345
:10011C0000800123237010BD0C00002000000000A3
:10012C00F02F000808B5034B1BB103490348AFF38C
:10013C00008008BD0000000010000020F02F000817
:10014C0080F0004002E000BF81F0004142001FBF80
:10015C005FEA410392EA030F7FEA226C7FEA236C89
:10016C006AD04FEA1262D2EB1363C1BFD21841407E
:10017C0048404140B8BF5B42192B88BF704710F014
:10018C00004F40F4000020F07F4018BF404211F0B7
:10019C00004F41F4000121F07F4118BF494292EA1F
:1001AC00030F3FD0A2F1010241FA03FC10EB0C004B
:1001BC00C3F1200301FA03F100F0004302D54942D8
:1001CC0060EB4000B0F5000F13D3B0F1807F06D385
:1001DC0040084FEA310102F10102FE2A51D2B1F17D
:1001EC00004F40EBC25008BF20F0010040EA030072
:1001FC007047490040EB0000013A28BFB0F5000FF2
:10020C00EDD2B0FA80FCACF1080CB2EB0C0200FAA7
:10021C000CF0AABF00EBC25052421843BCBFD040F6
:10022C001843704792F0000F81F4000106BF80F470
:10023C0000000132013BB5E74FEA41037FEA226C33
:10024C0018BF7FEA236C21D092EA030F04D092F0FE
:10025C00000F08BF0846704790EA010F1CBF002032
:10026C00704712F07F4F04D1400028BF40F000408F
:10027C00704712F100723CBF00F50000704700F0AF
:10028C00004343F0FE4040F4000070477FEA2262D6
:10029C0016BF08467FEA23630146420206BF5FEAA7
:1002AC00412390EA010F40F4800070474FF00003A7
:1002BC0004E000BF10F0004348BF40425FEA000C6E
:1002CC0008BF704743F0964301464FF000001CE016
:1002DC0050EA010208BF70474FF000030AE000BF6C
:1002EC0050EA010208BF704711F0004302D54042AA
:1002FC0061EB41015FEA010C02BF8446014600201C
:10030C0043F0B64308BFA3F18053A3F50003BCFA36
:10031C008CF2083AA3EBC25310DB01FA02FC6344E3
:10032C0000FA02FCC2F12002BCF1004F20FA02F2EA
:10033C0043EB020008BF20F00100704702F12002DD
:10034C0001FA02FCC2F1200250EA4C0021FA02F23E
:10035C0043EB020008BF20EADC7070474FEA400212
:10036C00B2F1FE4F0FD34FF09E03B3EB12620DD9D7
:10037C004FEA002343F0004310F0004F23FA02F041
:10038C0018BF404270474FF00000704712F1610FE8
:10039C0001D1420205D110F0004008BF6FF00040BF
:1003AC0070474FF00000704780B582B000AF00F08E
:1003BC00DFFB00F057F800F0D7F900F0E9F800F097
:1003CC005DF900F0A7F80C211F4801F0F3FF0421A0
:1003DC001E4801F0EFFF1E4800F028FD00F0C4F9A4
:1003EC0001211C4801F0D0FA0346FB711A4B1B6823
:1003FC00012B24D1194B1B681846FFF7AFFF03469E
:10040C001B01174A1360FB79002B09D10F4B1B689A
:10041C0000229A63124B1A680B4B1B681A6408E093
:10042C000F4B1A68094B1B689A63074B1B68002219
:10043C001A64094B00221A60054800F0F7FC4FF4CF
:10044C007A7000F0F7FBCBE7A400002064000020DA
:10045C003400002000080140280000202C0000205F
:10046C003000002080B594B000AF07F1280328229B
:10047C000021184602F08AFD07F1140300221A60CD
:10048C005A609A60DA601A613B1D00221A605A6049
:10049C009A60DA600223BB620123BB631023FB6307
:1004AC0002237B640023BB644FF46013FB6407F1ED
:1004BC002803184601F080FA0346002B01D000F007
:1004CC00A5F90F237B610223BB610023FB614FF471
:1004DC0080633B6200237B6207F114030221184600
:1004EC0001F0ECFC0346002B01D000F08FF9022345
:1004FC007B604FF40043FB603B1D184601F044FE4B
:10050C000346002B01D000F081F900BF5037BD46E7
:10051C0080BD000080B584B000AF3B1D00221A6086
:10052C005A609A60184B194A1A60174B00229A604D
:10053C00154B00221A73144B00221A75124B4FF4F0
:10054C006022DA61104B00225A600F4B01221A61B3
:10055C000D4800F093FB0346002B01D000F056F938
:10056C0008237B600123BB600023FB603B1D194605
:10057C00054800F0E9FD0346002B01D000F046F9D8
:10058C0000BF1037BD4680BD340000200024014060
:10059C0080B58EB000AF07F1280300221A605A60B4
:1005AC009A60DA6007F1200300221A605A603B1D42
:1005BC0000221A605A609A60DA601A615A619A6174
:1005CC002D4B4FF080421A602B4B00225A602A4B65
:1005DC0000229A60284B4FF6FF72DA60264B0022FD
:1005EC001A61254B00229A61234801F083FE0346D1
:1005FC00002B01D000F00AF94FF48053BB6207F1D5
:10060C00280319461C4802F0D5F80346002B01D0EC
:10061C0000F0FCF8184801F098FE0346002B01D0BE
:10062C0000F0F4F800233B6200237B6207F1200307
:10063C001946114802F054FC0346002B01D000F07F
:10064C00E5F860237B600023BB600023FB60002384
:10065C007B613B1D04221946074801F0E5FF034668
:10066C00002B01D000F0D2F8034800F08BF900BF4A
:10067C003837BD4680BD00BF6400002080B58EB009
:10068C0000AF07F1280300221A605A609A60DA6002
:10069C0007F1200300221A605A603B1D00221A60E9
:1006AC005A609A60DA601A615A619A612C4B2D4A31
:1006BC001A602B4B00225A60294B00229A60284B5F
:1006CC004FF6FF72DA60264B00221A61244B00228F
:1006DC009A61234801F00EFE0346002B01D000F076
:1006EC0095F84FF48053BB6207F1280319461C4858
:1006FC0002F060F80346002B01D000F087F8184890
:10070C0001F023FE0346002B01D000F07FF80023FC
:10071C003B6200237B6207F120031946104802F06C
:10072C00DFFB0346002B01D000F070F860237B60E8
:10073C000023BB600023FB6000237B613B1D0C226C
:10074C001946074801F070FF0346002B01D000F05A
:10075C005DF8034800F016F900BF3837BD4680BD80
:10076C00A40000200004004080B586B000AF07F163
:10077C00080300221A605A609A60DA60134B9B6976
:10078C00124A43F004039361104B9B6903F004037A
:10079C007B607B680D4B9B690C4A43F008039361AB
:1007AC000A4B9B6903F008033B603B680123BB6069
:1007BC000023FB6000233B6107F108031946044842
:1007CC0000F05EFF00BF1837BD4680BD0010024030
:1007DC000008014080B582B000AF7860084B012260
:1007EC001A60084800F0D8FB03461846FFF75EFD78
:1007FC000346054A136000BF0837BD4680BD00BFE5
:10080C0028000020340000202C00002080B400AF11
:10081C0072B600BF00BFFDE780B485B000AF154BCA
:10082C009B69144A43F001039361124B9B6903F0DB
:10083C000103BB60BB680F4BDB690E4A43F080536E
:10084C00D3610C4BDB6903F080537B607B680A4BF4
:10085C005B68FB60FB6823F0E063FB60FB6843F0C4
:10086C008063FB60044AFB68536000BF1437BD46CD
:10087C0080BC7047001002400000014080B588B079
:10088C0000AF786007F1100300221A605A609A607A
:10089C00DA607B681B68184A934229D1174B9B6915
:1008AC00164A43F400739361144B9B6903F4007371
:1008BC00FB60FB68114B9B69104A43F00803936182
:1008CC000E4B9B6903F00803BB60BB6801233B61C3
:1008DC0003237B6107F110031946094800F0D0FE91
:1008EC0000220021122000F094FE122000F0ADFE38
:1008FC0000BF2037BD4680BD0024014000100240DF
:10090C00000C014080B584B000AF78607B681B6838
:10091C00B3F1804F14D1194BDB69184A43F0010332
:10092C00D361164BDB6903F00103FB60FB6800220B
:10093C0000211C2000F06DFE1C2000F086FE18E04B
:10094C007B681B680E4A934213D10C4BDB690B4A34
:10095C0043F00203D361094BDB6903F00203BB6074
:10096C00BB68002200211D2000F053FE1D2000F06A
:10097C006CFE00BF1037BD4680BD00BF00100240AA
:10098C000004004080B588B000AF786007F1100318
:10099C0000221A605A609A60DA607B681B68B3F1B7
:1009AC00804F18D11C4B9B691B4A43F00403936185
:1009BC00194B9B6903F00403FB60FB6802233B614A
:1009CC0002237B610223FB6107F1100319461348D4
:1009DC0000F056FE1CE07B681B68114A934217D14D
:1009EC000D4B9B690C4A43F0080393610A4B9B69BE
:1009FC0003F00803BB60BB6802233B6102237B61ED
:100A0C000223FB6107F110031946064800F038FE7B
:100A1C0000BF2037BD4680BD0010024000080140D9
:100A2C0000040040000C014080B400AF00BFFDE7A3
:100A3C0080B400AF00BFFDE780B400AF00BFFDE79E
:100A4C0080B400AF00BFFDE780B400AF00BFFDE78E
:100A5C0080B400AF00BFBD4680BC704780B400AF0F
:100A6C0000BFBD4680BC704780B400AF00BFBD4620
:100A7C0080BC704780B500AF00F0C0F800BF80BDEF
:100A8C0080B500AF024800F093FA00BF80BD00BFF4
:100A9C003400002080B500AF024801F0BDFC00BF5F
:100AAC0080BD00BF6400002080B500AF024801F09B
:100ABC00B3FC00BF80BD00BFA400002080B400AF19
:100ACC00154B1B68144A43F001031360124B5A6810
:100ADC001149124B13404B600F4B1B680E4A23F00D
:100AEC00847323F4803313600B4B1B680A4A23F482
:100AFC0080231360084B5B68074A23F4FE035360A2
:100B0C00054B4FF41F029A60054B4FF000629A6040
:100B1C0000BFBD4680BC7047001002400000FFF8CB
:100B2C0000ED00E0002103E00B4B5B584350043117
:100B3C000A480B4B42189A42F6D30A4A02E00023A9
:100B4C0042F8043B084B9A42F9D3FFF7B7FF02F087
:100B5C0025FAFFF729FC7047303000080000002010
:100B6C000C0000200C000020E8000020FEE7000034
:100B7C0080B500AF084B1B68074A43F010031360A5
:100B8C00032000F03BFD0F2000F008F8FFF744FEB7
:100B9C000023184680BD00BF0020024080B582B003
:100BAC0000AF7860124B1A68124B1B7819464FF441
:100BBC007A73B3FBF1F3B2FBF3F3184600F053FD79
:100BCC000346002B01D001230EE07B680F2B0AD8C3
:100BDC00002279684FF0FF3000F01BFD064A7B685D
:100BEC001360002300E0012318460837BD4680BD82
:100BFC0000000020080000200400002080B400AF9A
:100C0C00054B1B781A46054B1B681344034A1360AB
:100C1C0000BFBD4680BC704708000020E4000020E7
:100C2C0080B400AF024B1B681846BD4680BC7047B1
:100C3C00E400002080B584B000AF7860FFF7F0FFCF
:100C4C00B8607B68FB60FB68B3F1FF3F05D00A4BD3
:100C5C001B781A46FB681344FB6000BFFFF7E0FFEC
:100C6C000246BB68D31AFA689A42F7D800BF00BF95
:100C7C001037BD4680BD00BF0800002080B586B08F
:100C8C0000AF78600023FB7500233B610023BB6041
:100C9C000023FB607B68002B01D10123BEE07B6845
:100CAC009B68002B7B689B6A002B09D17B68002218
:100CBC00DA627B68002283F824207868FFF7DEFD77
:100CCC00786800F08BFB0346FB757B689B6A03F02E
:100CDC001003002B40F09980FB7D002B40F0958099
:100CEC007B689B6A23F4885323F0020343F00202CF
:100CFC007B689A627B685A687B68DB691A437B68FD
:100D0C001B7B5B001343BA681343BB607B689B6817
:100D1C00B3F5807F03D07B689B68012B02D14FF425
:100D2C00807300E000233A6913433B617B681B7DB1
:100D3C00012B19D17B681B7B002B09D17B689B692C
:100D4C00013B5A033B69134343F400633B610BE0E3
:100D5C007B689B6A43F020027B689A627B68DB6A43
:100D6C0043F001027B68DA627B681B685B6823F4E2
:100D7C0069417B681B683A690A435A607B681B6847
:100D8C009A68284B13407A681268B9680B439360D1
:100D9C007B689B68B3F5807F03D07B689B68012BD5
:100DAC0004D17B681B69013B1B05FB607B681B68DE
:100DBC00DB6A23F470017B681B68FA680A43DA6209
:100DCC007B681B689A68184B1340BA689A420BD11F
:100DDC007B680022DA627B689B6A23F0030343F092
:100DEC0001027B689A6218E07B689B6A23F012030D
:100DFC0043F010027B689A627B68DB6A43F0010265
:100E0C007B68DA620123FB7507E07B689B6A43F021
:100E1C0010027B689A620123FB75FB7D184618371C
:100E2C00BD4680BDFDF7E1FFFE0E1FFF80B584B00F
:100E3C0000AF78600023FB737B6893F82430012BA0
:100E4C0001D10223A0E07B68012283F8242078687A
:100E5C0000F072FA0346FB73FB7B002B40F08F8093
:100E6C007B689B6A23F4706323F0010343F4807264
:100E7C007B689A627B681B68454A934205D1454B57
:100E8C005B6803F47023002B15D17B689B6A23F4F9
:100E9C0080127B689A627B681B685B6803F48063D2
:100EAC00002B26D07B689B6A23F4405343F480527A
:100EBC007B689A621DE07B689B6A43F480127B68B6
:100ECC009A627B681B68334A934204D07B681B6828
:100EDC002F4A93420DD12F4B5B6803F48063002B98
:100EEC0007D07B689B6A23F4405343F480527B68A1
:100EFC009A627B689B6A03F48053002B06D07B6854
:100F0C00DB6A23F006027B68DA6202E07B6800226F
:100F1C00DA627B68002283F824207B681B686FF000
:100F2C0002021A607B681B685A687B681B6842F077
:100F3C0020025A607B681B689B6803F46023B3F53E
:100F4C00602F13D17B681B68114A934205D1114B5A
:100F5C005B6803F47023002B08D17B681B689A68CC
:100F6C007B681B6842F4A0029A600CE07B681B68EB
:100F7C009A687B681B6842F480129A6003E07B6875
:100F8C00002283F82420FB7B18461037BD4680BD19
:100F9C00002801400024014080B483B000AF786089
:100FAC007B681B68DB6C18460C37BD4680BC7047F1
:100FBC0080B582B000AF78607B681B685B6803F01B
:100FCC002003202B40D17B681B681B6803F00203B5
:100FDC00022B39D17B689B6A03F01003002B05D1DF
:100FEC007B689B6A43F400727B689A627B681B681F
:100FFC009B6803F46023B3F5602F1DD17B681B7BCA
:10100C00002B19D17B681B685A687B681B6822F01F
:10101C0020025A607B689B6A23F480727B689A6218
:10102C007B689B6A03F48053002B05D17B689B6A19
:10103C0043F001027B689A627868FFF7CBFB7B6810
:10104C001B686FF012021A607B681B685B6803F008
:10105C008003802B4FD17B681B681B6803F0040353
:10106C00042B48D17B689B6A03F01003002B05D13D
:10107C007B689B6A43F400527B689A627B681B68AE
:10108C009B6803F4E043B3F5E04F12D07B681B6818
:10109C005B6803F48063002B25D17B681B689B681D
:1010AC0003F46023B3F5602F1DD17B681B7B002BF1
:1010BC0019D17B681B685A687B681B6822F0800218
:1010CC005A607B689B6A23F480527B689A627B68C7
:1010DC009B6A03F48073002B05D17B689B6A43F0F9
:1010EC0001027B689A62786800F0B2F97B681B6831
:1010FC006FF00C021A607B681B685B6803F040039E
:10110C00402B14D17B681B681B6803F00103012B77
:10111C000DD17B689B6A43F480327B689A62786855
:10112C0000F009F87B681B686FF001021A6000BFC1
:10113C000837BD4680BD80B483B000AF786000BF77
:10114C000C37BD4680BC704780B485B000AF78606A
:10115C0039600023FB730023BB607B6893F8243059
:10116C00012B01D10223DCE07B68012283F82420CF
:10117C003B685B68062B1CD87B681B68596B3B680B
:10118C005A6813469B001344053B1F2202FA03F3D3
:10119C00DB4319403B6818683B685A6813469B0050
:1011AC001344053B00FA03F27B681B680A435A633D
:1011BC003CE03B685B680C2B1CD87B681B68196B8C
:1011CC003B685A6813469B001344233B1F2202FAC8
:1011DC0003F3DB4319403B6818683B685A681346B5
:1011EC009B001344233B00FA03F27B681B680A4301
:1011FC001A631BE07B681B68D96A3B685A68134604
:10120C009B001344413B1F2202FA03F3DB431940BA
:10121C003B6818683B685A6813469B001344413B73
:10122C0000FA03F27B681B680A43DA623B681B68AE
:10123C00092B1CD97B681B68D9683B681A68134654
:10124C005B0013441E3B072202FA03F3DB431940F5
:10125C003B6898683B681A6813465B0013441E3B56
:10126C0000FA03F27B681B680A43DA6019E07B68BA
:10127C001B6819693B681A6813465B001344072204
:10128C0002FA03F3DB4319403B6898683B681A6821
:10129C0013465B00134400FA03F27B681B680A4395
:1012AC001A613B681B68102B03D03B681B68112B21
:1012BC0032D17B681B681D4A934225D17B681B6821
:1012CC009B6803F40003002B26D17B681B689A688B
:1012DC007B681B6842F400029A603B681B68102B09
:1012EC001AD1134B1B68134AA2FB03239A0C134607
:1012FC009B0013445B00BB6002E0BB68013BBB601E
:10130C00BB68002BF9D107E07B689B6A43F0200295
:10131C007B689A620123FB737B68002283F824208C
:10132C00FB7B18461437BD4680BC70470024014037
:10133C000000002083DE1B4380B584B000AF7860D2
:10134C000023FB600023BB607B681B689B6803F079
:10135C000103012B39D07B681B689A687B681B687A
:10136C0042F001029A601B4B1B681B4AA2FB032331
:10137C009B0CBB6002E0BB68013BBB60BB68002BF5
:10138C00F9D1FFF74DFCF86018E0FFF749FC024675
:10139C00FB68D31A022B11D97B689B6A43F01002AD
:1013AC007B689A627B68DB6A43F001027B68DA62D5
:1013BC007B68002283F82420012307E07B681B68EC
:1013CC009B6803F00103012BDFD100231846103773
:1013DC00BD4680BD0000002083DE1B4380B584B079
:1013EC0000AF78600023FB607B681B689B6803F090
:1013FC000103012B27D17B681B689A687B681B68EB
:10140C0022F001029A60FFF70BFCF86014E0FFF782
:10141C0007FC0246FB68D31A022B0DD97B689B6A2A
:10142C0043F010027B689A627B68DB6A43F001022E
:10143C007B68DA62012307E07B681B689B6803F01A
:10144C000103012BE3D0002318461037BD4680BDA5
:10145C0080B483B000AF786000BF0C37BD4680BC51
:10146C007047000080B485B000AF78607B6803F0F3
:10147C000703FB600C4BDB68BB60BA684FF6FF03DD
:10148C001340BB60FB681A02BB68134343F0BF6395
:10149C0043F40033BB60044ABB68D36000BF14370D
:1014AC00BD4680BC704700BF00ED00E080B400AFCB
:1014BC00044BDB681B0A03F007031846BD4680BCCF
:1014CC00704700BF00ED00E080B483B000AF03466E
:1014DC00FB7197F90730002B0BDBFB7903F01F0234
:1014EC00064997F907305B09012000FA02F241F82E
:1014FC00232000BF0C37BD4680BC704700E100E0E4
:10150C0080B483B000AF03463960FB7197F90730A4
:10151C00002B0ADB3B68DAB20C4997F90730120151
:10152C00D2B20B4483F800230AE03B68DAB20849D4
:10153C00FB7903F00F03043B1201D2B20B441A7671
:10154C0000BF0C37BD4680BC704700BF00E100E017
:10155C0000ED00E080B489B000AFF860B9607A604B
:10156C00FB6803F00703FB61FB69C3F10703042B62
:10157C0028BF0423BB61FB690433062B02D9FB692A
:10158C00033B00E000237B614FF0FF32BB6902FAA2
:10159C0003F3DA43BB681A407B699A404FF0FF3182
:1015AC007B6901FA03F3D9437B680B40134318465C
:1015BC002437BD4680BC704780B582B000AF7860E0
:1015CC007B68013BB3F1807F01D301230FE00A4A12
:1015DC007B68013B53600F214FF0FF30FFF790FF0A
:1015EC00054B00229A60044B07221A600023184610
:1015FC000837BD4680BD00BF10E000E080B582B06A
:10160C0000AF78607868FFF72DFF00BF0837BD4644
:10161C0080BD80B586B000AF0346B9607A60FB73BD
:10162C0000237B61FFF742FF78617A68B9687869BB
:10163C00FFF790FF024697F90F3011461846FFF757
:10164C005FFF00BF1837BD4680BD80B582B000AFCC
:10165C000346FB7197F907301846FFF735FF00BFBB
:10166C000837BD4680BD80B582B000AF7860786821
:10167C00FFF7A2FF034618460837BD4680BD0000A1
:10168C0080B48BB000AF7860396000237B6200239C
:10169C003B6269E101227B6A02FA03F3FB613B685E
:1016AC001B68FA691340BB61BA69FB699A4240F046
:1016BC0058813B685B689A4A93425ED0984A934241
:1016CC0075D8984A934258D0964A93426FD8964A06
:1016DC00934252D0944A934269D8944A93424CD044
:1016EC00924A934263D8924A934246D0904A93428C
:1016FC005DD8122B2AD8122B59D801A252F823F0FC
:10170C00871700086117000873170008B517000841
:10171C00BB170008BB170008BB170008BB17000855
:10172C00BB170008BB170008BB170008BB17000845
:10173C00BB170008BB170008BB170008BB17000835
:10174C00BB170008691700087D170008794A9342F7
:10175C0013D02CE03B68DB683B6229E03B68DB681C
:10176C0004333B6224E03B68DB6808333B621FE0D8
:10177C003B68DB680C333B621AE03B689B68002BD0
:10178C0002D104233B6213E03B689B68012B05D11B
:10179C0008233B627B68FA691A6109E008233B6203
:1017AC007B68FA695A6103E000233B6200E000BFEA
:1017BC00BB69FF2B01D87B6801E07B6804337B613C
:1017CC00BB69FF2B02D87B6A9B0002E07B6A083B5B
:1017DC009B003B617B691A680F213B6901FA03F39B
:1017EC00DB431A40396A3B6901FA03F31A437B69FC
:1017FC001A603B685B6803F08053002B00F0B180EB
:10180C004D4B9B694C4A43F0010393614A4B9B69D6
:10181C0003F00103BB60BB68484A7B6A9B08023338
:10182C0052F82330FB607B6A03F003039B000F220A
:10183C0002FA03F3DB43FA681340FB607B68404A0F
:10184C00934213D07B683F4A93420DD07B683E4A4B
:10185C00934207D07B683D4A934201D1032306E0B3
:10186C00042304E0022302E0012300E000237A6A4F
:10187C0002F0030292009340FA681343FB602F4975
:10188C007B6A9B080233FA6841F823203B685B684B
:10189C0003F48033002B06D02D4B1A682C49BB69FE
:1018AC0013430B6006E02A4B1A68BB69DB432849DB
:1018BC0013400B603B685B6803F40033002B06D0CD
:1018CC00234B5A682249BB6913434B6006E0204BFB
:1018DC005A68BB69DB431E4913404B603B685B682D
:1018EC0003F48013002B06D0194B9A681849BB6976
:1018FC0013438B6006E0164B9A68BB69DB431449B3
:10190C0013408B603B685B6803F40013002B21D001
:10191C000F4BDA680E49BB691343CB6021E000BF63
:10192C0000003210000031100000221000002110C5
:10193C0000001210000011100010024000000140C5
:10194C0000080140000C014000100140001401404F
:10195C00000401400B4BDA68BB69DB4309491340B7
:10196C00CB607B6A01337B623B681A687B6A22FA24
:10197C0003F3002B7FF48EAE00BF00BF2C37BD46A7
:10198C0080BC70470004014080B485B000AF786023
:10199C000B467B807B689A687B881340002B02D0B7
:1019AC000123FB7301E00023FB73FB7B1846143708
:1019BC00BD4680BC7047000080B586B000AF786033
:1019CC007B68002B01D1012372E27B681B6803F05A
:1019DC000103002B00F08780924B5B6803F00C0333
:1019EC00042B0CD08F4B5B6803F00C03082B12D12B
:1019FC008C4B5B6803F48033B3F5803F0BD1894B80
:101A0C001B6803F40033002B6CD07B685B68002BE5
:101A1C0068D101234CE27B685B68B3F5803F06D14B
:101A2C00804B1B687F4A43F4803313602EE07B6845
:101A3C005B68002B0CD17B4B1B687A4A23F48033F8
:101A4C001360784B1B68774A23F4802313601DE0E6
:101A5C007B685B68B3F5A02F0CD1724B1B68714A85
:101A6C0043F4802313606F4B1B686E4A43F480333E
:101A7C0013600BE06B4B1B686A4A23F480331360D2
:101A8C00684B1B68674A23F4802313607B685B6890
:101A9C00002B13D0FFF7C4F8386108E0FFF7C0F84B
:101AAC0002463B69D31A642B01D9032300E25D4B38
:101ABC001B6803F40033002BF0D014E0FFF7B0F8F0
:101ACC00386108E0FFF7ACF802463B69D31A642B87
:101ADC0001D90323ECE1534B1B6803F40033002BB7
:101AEC00F0D100E000BF7B681B6803F00203002B01
:101AFC0063D04C4B5B6803F00C03002B0BD0494BB1
:101B0C005B6803F00C03082B1CD1464B5B6803F499
:101B1C008033002B16D1434B1B6803F00203002BC0
:101B2C0005D07B681B69012B01D00123C0E13D4B23
:101B3C001B6823F0F8027B685B69DB0039491343AF
:101B4C000B603AE07B681B69002B20D0364B0122DE
:101B5C001A60FFF765F8386108E0FFF761F8024694
:101B6C003B69D31A022B01D90323A1E12D4B1B682E
:101B7C0003F00203002BF0D02A4B1B6823F0F80271
:101B8C007B685B69DB00274913430B6015E0264B30
:101B9C0000221A60FFF744F8386108E0FFF740F8BC
:101BAC0002463B69D31A022B01D9032380E11D4B5A
:101BBC001B6803F00203002BF0D17B681B6803F059
:101BCC000803002B3AD07B689B69002B19D0174B6C
:101BDC0001221A60FFF724F8386108E0FFF720F8BB
:101BEC0002463B69D31A022B01D9032360E10D4B4A
:101BFC005B6A03F00203002BF0D0012000F0A6FA80
:101C0C001CE00A4B00221A60FFF70AF838610FE05B
:101C1C00FFF706F802463B69D31A022B08D90323B7
:101C2C0046E100BF001002400000424280044242E4
:101C3C00924B5B6A03F00203002BE9D17B681B68B3
:101C4C0003F00403002B00F0A6800023FB758B4BE4
:101C5C00DB6903F08053002B0DD1884BDB69874A7D
:101C6C0043F08053D361854BDB6903F08053BB6039
:101C7C00BB680123FB75824B1B6803F48073002B3C
:101C8C0018D17F4B1B687E4A43F480731360FEF7B8
:101C9C00C7FF386108E0FEF7C3FF02463B69D31A61
:101CAC00642B01D9032303E1754B1B6803F4807388
:101CBC00002BF0D07B68DB68012B06D16F4B1B6AC5
:101CCC006E4A43F0010313622DE07B68DB68002B46
:101CDC000CD16A4B1B6A694A23F001031362674BF0
:101CEC001B6A664A23F0040313621CE07B68DB6802
:101CFC00052B0CD1614B1B6A604A43F00403136241
:101D0C005E4B1B6A5D4A43F0010313620BE05B4BB5
:101D1C001B6A5A4A23F001031362584B1B6A574A39
:101D2C0023F0040313627B68DB68002B15D0FEF7ED
:101D3C0077FF38610AE0FEF773FF02463B69D31A5E
:101D4C0041F28832934201D90323B1E04B4B1B6A19
:101D5C0003F00203002BEED014E0FEF761FF3861B4
:101D6C000AE0FEF75DFF02463B69D31A41F2883266
:101D7C00934201D903239BE0404B1B6A03F00203FF
:101D8C00002BEED1FB7D012B05D13C4BDB693B4A93
:101D9C0023F08053D3617B68DB69002B00F08780D4
:101DAC00364B5B6803F00C03082B61D07B68DB6956
:101DBC00022B46D1334B00221A60FEF731FF3861FB
:101DCC0008E0FEF72DFF02463B69D31A022B01D91E
:101DDC0003236DE0294B1B6803F00073002BF0D13B
:101DEC007B681B6AB3F5803F08D1244B5B6823F4F6
:101DFC0000327B689B68214913434B601F4B5B6827
:101E0C0023F474127B68196A7B685B6A0B431B4969
:101E1C0013434B601B4B01221A60FEF701FF386124
:101E2C0008E0FEF7FDFE02463B69D31A022B01D9EE
:101E3C0003233DE0114B1B6803F00073002BF0D023
:101E4C0035E0104B00221A60FEF7EAFE386108E01C
:101E5C00FEF7E6FE02463B69D31A022B01D9032397
:101E6C0026E0064B1B6803F00073002BF0D11EE03C
:101E7C007B68DB69012B07D1012319E000100240BC
:101E8C0000700040600042420B4B5B68FB60FB68DB
:101E9C0003F480327B681B6A9A4206D1FB6803F418
:101EAC0070127B685B6A9A4201D0012300E0002328
:101EBC0018461837BD4680BD0010024080B584B06E
:101ECC0000AF786039607B68002B01D10123D0E032
:101EDC006A4B1B6803F007033A689A4210D9674BA8
:101EEC001B6823F0070265493B6813430B60634B87
:101EFC001B6803F007033A689A4201D00123B8E04B
:101F0C007B681B6803F00203002B20D07B681B68E6
:101F1C0003F00403002B05D0594B5B68584A43F47B
:101F2C00E06353607B681B6803F00803002B05D04B
:101F3C00534B5B68524A43F460535360504B5B689D
:101F4C0023F0F0027B689B684D4913434B607B6820
:101F5C001B6803F00103002B40D07B685B68012BEE
:101F6C0007D1474B1B6803F40033002B15D1012319
:101F7C007FE07B685B68022B07D1414B1B6803F049
:101F8C000073002B09D1012373E03D4B1B6803F058
:101F9C000203002B01D101236BE0394B5B6823F06A
:101FAC0003027B685B68364913434B60FEF738FECF
:101FBC00F8600AE0FEF734FE0246FB68D31A41F2E1
:101FCC008832934201D9032353E02D4B5B6803F015
:101FDC000C027B685B689B009A42EBD1274B1B6819
:101FEC0003F007033A689A4210D2244B1B6823F083
:101FFC00070222493B6813430B60204B1B6803F01C
:10200C0007033A689A4201D0012332E07B681B68CF
:10201C0003F00403002B08D0194B5B6823F4E06237
:10202C007B68DB68164913434B607B681B6803F0C5
:10203C000803002B09D0124B5B6823F460527B68B9
:10204C001B69DB000E4913434B6000F021F802467C
:10205C000B4B5B681B0903F00F030A49CB5C22FA9C
:10206C0003F3094A1360094B1B681846FEF796FDEB
:10207C00002318461037BD4680BD00BF002002402B
:10208C00001002401830000800000020040000205E
:10209C0090B48AB000AF294B3C1D0FCB84E80F00E5
:1020AC0040F201233B800023FB610023BB61002332
:1020BC007B6200237B6100233B62214B5B68FB61ED
:1020CC00FB6903F00C03042B02D0082B03D02BE08C
:1020DC001C4B3B622BE0FB699B0C03F00F0328337A
:1020EC003B4413F8243C7B61FB6903F48033002BE5
:1020FC0012D0134B5B685B0C03F0010328333B4499
:10210C0013F8283CBB617B690E4A03FB02F2BB69E6
:10211C00B2FBF3F37B6204E07B690B4A02FB03F333
:10212C007B627B6A3B6202E0064B3B6200BF3B6A10
:10213C0018462837BD4690BC704700BF08300008D1
:10214C000010024000127A0000093D0080B485B0F6
:10215C0000AF78600A4B1B680A4AA2FB03235B0A98
:10216C007A6802FB03F3FB6000BFFB685A1EFA603F
:10217C00002BF9D100BF00BF1437BD4680BC70479F
:10218C0000000020D34D621080B586B000AF78609F
:10219C0000233B610023FB607B681B6803F0010399
:1021AC00002B7DD00023FB754F4BDB6903F0805374
:1021BC00002B0DD14C4BDB694B4A43F08053D36160
:1021CC00494BDB6903F08053BB60BB680123FB7593
:1021DC00464B1B6803F48073002B18D1434B1B68D0
:1021EC00424A43F480731360FEF71AFD386108E02D
:1021FC00FEF716FD02463B69D31A642B01D9032363
:10220C006DE03A4B1B6803F48073002BF0D0364B17
:10221C001B6A03F44073FB60FB68002B2ED07B68B9
:10222C005B6803F44073FA689A4227D02E4B1B6A02
:10223C0023F44073FB602E4B01221A602C4B0022BE
:10224C001A60294AFB681362FB6803F00103002B38
:10225C0014D0FEF7E5FC38610AE0FEF7E1FC02461B
:10226C003B69D31A41F28832934201D9032336E0F9
:10227C001D4B1B6A03F00203002BEED01A4B1B6A9A
:10228C0023F440727B685B68174913430B62FB7D38
:10229C00012B05D1144BDB69134A23F08053D36116
:1022AC007B681B6803F00203002B08D00E4B5B68A5
:1022BC0023F440427B689B680B4913434B607B685B
:1022CC001B6803F01003002B08D0074B5B6823F44A
:1022DC0080027B68DB68044913434B60002318467B
:1022EC001837BD4680BD00BF001002400070004092
:1022FC004004424280B582B000AF78607B68002B0E
:10230C0001D101231DE07B6893F83D30DBB2002B3B
:10231C0006D17B68002283F83C207868FEF7F2FA3D
:10232C007B68022283F83D207B681A687B68043343
:10233C001946104600F030FB7B68012283F83D20E3
:10234C00002318460837BD4680BD80B582B000AF6B
:10235C0078607B68002B01D101231DE07B6893F82A
:10236C003D30DBB2002B06D17B68002283F83C2089
:10237C00786800F015F87B68022283F83D207B68B2
:10238C001A687B6804331946104600F005FB7B681D
:10239C00012283F83D20002318460837BD4680BD36
:1023AC0080B483B000AF786000BF0C37BD4680BCF2
:1023BC007047000080B584B000AF786039607B68EE
:1023CC001B6801223968184600F066FD7B681B68A3
:1023DC00104A934207D17B681B685A6C7B681B6858
:1023EC0042F400425A647B681B689B6803F0070345
:1023FC00FB60FB68062B07D07B681B681A687B6840
:10240C001B6842F001021A60002318461037BD46C3
:10241C0080BD00BF002C014080B582B000AF786059
:10242C007B681B681B6903F00203022B22D17B68BB
:10243C001B68DB6803F00203022B1BD17B681B6853
:10244C006FF002021A617B6801221A777B681B68A5
:10245C009B6903F00303002B03D0786800F080FA2B
:10246C0005E0786800F073FA786800F082FA7B680F
:10247C0000221A777B681B681B6903F00403042B8A
:10248C0022D17B681B68DB6803F00403042B1BD18F
:10249C007B681B686FF004021A617B6802221A7752
:1024AC007B681B689B6903F44073002B03D078682E
:1024BC0000F056FA05E0786800F049FA786800F008
:1024CC0058FA7B6800221A777B681B681B6903F03B
:1024DC000803082B22D17B681B68DB6803F0080318
:1024EC00082B1BD17B681B686FF008021A617B6894
:1024FC0004221A777B681B68DB6903F00303002B4B
:10250C0003D0786800F02CFA05E0786800F01FFA28
:10251C00786800F02EFA7B6800221A777B681B68BB
:10252C001B6903F01003102B22D17B681B68DB683E
:10253C0003F01003102B1BD17B681B686FF010028B
:10254C001A617B6808221A777B681B68DB6903F4C5
:10255C004073002B03D0786800F002FA05E078682D
:10256C0000F0F5F9786800F004FA7B6800221A771D
:10257C007B681B681B6903F00103012B0ED17B6880
:10258C001B68DB6803F00103012B07D17B681B6818
:10259C006FF001021A61786800F0D0F97B681B6853
:1025AC001B6903F08003802B0ED17B681B68DB68F2
:1025BC0003F08003802B07D17B681B686FF08002CF
:1025CC001A61786800F0D9FC7B681B681B6903F002
:1025DC004003402B0ED17B681B68DB6803F0400383
:1025EC00402B07D17B681B686FF040021A6178683A
:1025FC0000F0C8F97B681B681B6903F02003202BD3
:10260C000ED17B681B68DB6803F02003202B07D1FD
:10261C007B681B686FF020021A61786800F0A4FCDC
:10262C0000BF0837BD4680BD80B584B000AFF860F0
:10263C00B9607A60FB6893F83C30012B01D102231E
:10264C00B4E0FB68012283F83C20FB68022283F88B
:10265C003D207B680C2B00F29F8001A252F823F0E6
:10266C00A1260008A5270008A5270008A527000813
:10267C00E1260008A5270008A5270008A5270008C3
:10268C0023270008A5270008A5270008A527000870
:10269C0063270008FB681B68B968184600F0DEF970
:1026AC00FB681B689A69FB681B6842F008029A6118
:1026BC00FB681B689A69FB681B6822F004029A612C
:1026CC00FB681B689969BB681A69FB681B680A433D
:1026DC009A6162E0FB681B68B968184600F024FA3E
:1026EC00FB681B689A69FB681B6842F400629A617C
:1026FC00FB681B689A69FB681B6822F480629A610C
:10270C00FB681B689969BB681B691A02FB681B682C
:10271C000A439A6141E0FB681B68B968184600F0EF
:10272C006DFAFB681B68DA69FB681B6842F00802EB
:10273C00DA61FB681B68DA69FB681B6822F004022B
:10274C00DA61FB681B68D969BB681A69FB681B688E
:10275C000A43DA6121E0FB681B68B968184600F08F
:10276C00B7FAFB681B68DA69FB681B6842F4006205
:10277C00DA61FB681B68DA69FB681B6822F480620B
:10278C00DA61FB681B68D969BB681B691A02FB68B4
:10279C001B680A43DA6100E000BFFB68012283F882
:1027AC003D20FB68002283F83C200023184610379C
:1027BC00BD4680BD80B584B000AF786039607B6861
:1027CC0093F83C30012B01D10223B3E07B6801224A
:1027DC0083F83C207B68022283F83D207B681B68D1
:1027EC009B68FB60FB6823F07703FB60FB6823F4BA
:1027FC007F43FB607B681B68FA689A603B681B68C8
:10280C00B3F5005F3ED0B3F5005F00F28780B3F5FF
:10281C00805F00F08580B3F5805F7FD8702B1AD075
:10282C00702B7BD8602B50D0602B77D8502B3CD0A2
:10283C00502B73D8402B58D0402B6FD8302B64D0F2
:10284C00302B6BD8202B60D0202B67D8002B5CD082
:10285C00102B5AD062E07B6818683B6899683B681B
:10286C005A683B68DB6800F0F8FA7B681B689B6869
:10287C00FB60FB6843F07703FB607B681B68FA68BE
:10288C009A604EE07B6818683B6899683B685A68A8
:10289C003B68DB6800F0E1FA7B681B689A687B6830
:1028AC001B6842F480429A603BE07B6818683B6886
:1028BC0059683B68DB681A4600F058FA7B681B685D
:1028CC005021184600F0AFFA2BE07B6818683B6883
:1028DC0059683B68DB681A4600F076FA7B681B681F
:1028EC006021184600F09FFA1BE07B6818683B6873
:1028FC0059683B68DB681A4600F038FA7B681B683D
:10290C004021184600F08FFA0BE07B681A683B6890
:10291C001B681946104600F086FA02E000BF00E082
:10292C0000BF7B68012283F83D207B68002283F87E
:10293C003C20002318461037BD4680BD80B483B0C0
:10294C0000AF786000BF0C37BD4680BC704780B4C8
:10295C0083B000AF786000BF0C37BD4680BC7047B9
:10296C0080B483B000AF786000BF0C37BD4680BC2C
:10297C00704780B483B000AF786000BF0C37BD46A1
:10298C0080BC704780B483B000AF786000BF0C3758
:10299C00BD4680BC7047000080B485B000AF786045
:1029AC0039607B681B68FB607B68294A93420BD0BB
:1029BC007B68B3F1804F07D07B68264A934203D0E3
:1029CC007B68254A934208D1FB6823F07003FB60B7
:1029DC003B685B68FA681343FB607B681C4A934254
:1029EC000BD07B68B3F1804F07D07B68194A9342B8
:1029FC0003D07B68184A934208D1FB6823F44073D8
:102A0C00FB603B68DB68FA681343FB60FB6823F0F0
:102A1C0080023B685B691343FB607B68FA681A6051
:102A2C003B689A687B68DA623B681A687B689A62D2
:102A3C007B68074A934203D13B681A697B681A6327
:102A4C007B6801225A6100BF1437BD4680BC7047B9
:102A5C00002C0140000400400008004080B487B006
:102A6C0000AF786039607B681B6A23F001027B68D9
:102A7C001A627B681B6A7B617B685B683B617B6865
:102A8C009B69FB60FB6823F07003FB60FB6823F021
:102A9C000303FB603B681B68FA681343FB607B69AC
:102AAC0023F002037B613B689B687A6913437B616B
:102ABC007B681C4A93420CD17B6923F008037B6131
:102ACC003B68DB687A6913437B617B6923F0040301
:102ADC007B617B68134A934211D13B6923F4807369
:102AEC003B613B6923F400733B613B685B693A696A
:102AFC0013433B613B689B693A6913433B617B68B9
:102B0C003A695A607B68FA689A613B685A687B68D4
:102B1C005A637B687A691A6200BF1C37BD4680BC59
:102B2C00704700BF002C014080B487B000AF7860C4
:102B3C0039607B681B6A23F010027B681A627B6821
:102B4C001B6A7B617B685B683B617B689B69FB6094
:102B5C00FB6823F4E043FB60FB6823F44073FB60E9
:102B6C003B681B681B02FA681343FB607B6923F00C
:102B7C0020037B613B689B681B017A6913437B6173
:102B8C007B681D4A93420DD17B6923F080037B61E6
:102B9C003B68DB681B017A6913437B617B6923F01B
:102BAC0040037B617B68144A934213D13B6923F445
:102BBC0080633B613B6923F400633B613B685B6969
:102BCC009B003A6913433B613B689B699B003A69E4
:102BDC0013433B617B683A695A607B68FA689A6177
:102BEC003B685A687B689A637B687A691A6200BF93
:102BFC001C37BD4680BC7047002C014080B487B0A8
:102C0C0000AF786039607B681B6A23F480727B6844
:102C1C001A627B681B6A7B617B685B683B617B68C3
:102C2C00DB69FB60FB6823F07003FB60FB6823F03F
:102C3C000303FB603B681B68FA681343FB607B690A
:102C4C0023F400737B613B689B681B027A69134316
:102C5C007B617B681D4A93420DD17B6923F4006331
:102C6C007B613B68DB681B027A6913437B617B6980
:102C7C0023F480637B617B68144A934213D13B69D4
:102C8C0023F480533B613B6923F400533B613B6865
:102C9C005B691B013A6913433B613B689B691B01F0
:102CAC003A6913433B617B683A695A607B68FA68FE
:102CBC00DA613B685A687B68DA637B687A691A6206
:102CCC0000BF1C37BD4680BC704700BF002C0140C4
:102CDC0080B487B000AF786039607B681B6A23F4DE
:102CEC0080527B681A627B681B6A3B617B685B68FD
:102CFC007B617B68DB69FB60FB6823F4E043FB6072
:102D0C00FB6823F44073FB603B681B681B02FA688A
:102D1C001343FB603B6923F400533B613B689B68A6
:102D2C001B033A6913433B617B680F4A934209D1F9
:102D3C007B6923F480437B613B685B699B017A6907
:102D4C0013437B617B687A695A607B68FA68DA6145
:102D5C003B685A687B681A647B683A691A6200BFE0
:102D6C001C37BD4680BC7047002C014080B487B036
:102D7C0000AFF860B9607A60FB681B6A7B61FB6826
:102D8C001B6A23F00102FB681A62FB689B693B61BA
:102D9C003B6923F0F0033B617B681B013A691343E9
:102DAC003B617B6923F00A037B617A69BB6813433F
:102DBC007B61FB683A699A61FB687A691A6200BFA9
:102DCC001C37BD4680BC704780B487B000AFF8603C
:102DDC00B9607A60FB681B6A23F01002FB681A6208
:102DEC00FB689B697B61FB681B6A3B617B6923F415
:102DFC0070437B617B681B037A6913437B613B697E
:102E0C0023F0A0033B61BB681B013A6913433B6190
:102E1C00FB687A699A61FB683A691A6200BF1C37D1
:102E2C00BD4680BC704780B485B000AF7860396017
:102E3C007B689B68FB60FB6823F07003FB603A685F
:102E4C00FB68134343F00703FB607B68FA689A60E6
:102E5C0000BF1437BD4680BC704780B487B000AF4C
:102E6C00F860B9607A603B60FB689B687B617B694A
:102E7C0023F47F437B613B681A027B681A43BB686F
:102E8C0013437A6913437B61FB687A699A6000BFCC
:102E9C001C37BD4680BC704780B487B000AFF8606B
:102EAC00B9607A60BB6803F01F03012202FA03F3D6
:102EBC007B61FB681A6A7B69DB431A40FB681A6208
:102ECC00FB681A6ABB6803F01F03796801FA03F305
:102EDC001A43FB681A6200BF1C37BD4680BC7047A2
:102EEC0080B485B000AF786039607B6893F83C3073
:102EFC00012B01D1022332E07B68012283F83C20B4
:102F0C007B68022283F83D207B681B685B68FB6052
:102F1C007B681B689B68BB60FB6823F07003FB60DD
:102F2C003B681B68FA681343FB60BB6823F08003A3
:102F3C00BB603B685B68BA681343BB607B681B680B
:102F4C00FA685A607B681B68BA689A607B680122D1
:102F5C0083F83D207B68002283F83C200023184630
:102F6C001437BD4680BC704780B483B000AF786026
:102F7C0000BF0C37BD4680BC704780B483B000AF37
:102F8C00786000BF0C37BD4680BC704703460244D6
:102F9C00934200D1704703F8011BF9E770B5002686
:102FAC000C4D0D4C641BA410A64209D100F01AF86C
:102FBC0000260A4D0A4C641BA410A64205D170BD14
:102FCC0055F8043B98470136EEE755F8043B984713
:102FDC000136F2E7283000082830000828300008B5
:102FEC002C300008F8B500BFF8BC08BC9E467047F2
:0C2FFC00F8B500BFF8BC08BC9E4670474A
:1030080002030405060708090A0B0C0D0E0F101021
:103018000000000000000000010203040607080980
:04302800310100086A
:04302C000D0100088A
:0C3030000024F40010000000010000006B
:0400000508000B31B3
:00000001FF
